{
  "_format": "hh-sol-artifact-1",
  "contractName": "Marketplace",
  "sourceName": "src/backend/contracts/Marketplace.sol",
  "abi": [
    {
      "inputs": [
        {
          "internalType": "uint256",
          "name": "_feePercent",
          "type": "uint256"
        }
      ],
      "stateMutability": "nonpayable",
      "type": "constructor"
    },
    {
      "anonymous": false,
      "inputs": [
        {
          "indexed": false,
          "internalType": "uint256",
          "name": "itemId",
          "type": "uint256"
        },
        {
          "indexed": true,
          "internalType": "address",
          "name": "nft",
          "type": "address"
        },
        {
          "indexed": false,
          "internalType": "uint256",
          "name": "tokenId",
          "type": "uint256"
        },
        {
          "indexed": false,
          "internalType": "uint256",
          "name": "price",
          "type": "uint256"
        },
        {
          "indexed": true,
          "internalType": "address",
          "name": "seller",
          "type": "address"
        },
        {
          "indexed": true,
          "internalType": "address",
          "name": "buyer",
          "type": "address"
        }
      ],
      "name": "Bought",
      "type": "event"
    },
    {
      "anonymous": false,
      "inputs": [
        {
          "indexed": false,
          "internalType": "uint256",
          "name": "itemId",
          "type": "uint256"
        },
        {
          "indexed": true,
          "internalType": "address",
          "name": "nft",
          "type": "address"
        },
        {
          "indexed": false,
          "internalType": "uint256",
          "name": "tokenId",
          "type": "uint256"
        },
        {
          "indexed": false,
          "internalType": "uint256",
          "name": "price",
          "type": "uint256"
        },
        {
          "indexed": true,
          "internalType": "address",
          "name": "seller",
          "type": "address"
        }
      ],
      "name": "Offered",
      "type": "event"
    },
    {
      "inputs": [],
      "name": "feeAccount",
      "outputs": [
        {
          "internalType": "address payable",
          "name": "",
          "type": "address"
        }
      ],
      "stateMutability": "view",
      "type": "function"
    },
    {
      "inputs": [],
      "name": "feePercent",
      "outputs": [
        {
          "internalType": "uint256",
          "name": "",
          "type": "uint256"
        }
      ],
      "stateMutability": "view",
      "type": "function"
    },
    {
      "inputs": [
        {
          "internalType": "uint256",
          "name": "_itemId",
          "type": "uint256"
        }
      ],
      "name": "getTotalPrice",
      "outputs": [
        {
          "internalType": "uint256",
          "name": "",
          "type": "uint256"
        }
      ],
      "stateMutability": "view",
      "type": "function"
    },
    {
      "inputs": [],
      "name": "itemCount",
      "outputs": [
        {
          "internalType": "uint256",
          "name": "",
          "type": "uint256"
        }
      ],
      "stateMutability": "view",
      "type": "function"
    },
    {
      "inputs": [
        {
          "internalType": "uint256",
          "name": "",
          "type": "uint256"
        }
      ],
      "name": "items",
      "outputs": [
        {
          "internalType": "uint256",
          "name": "itemId",
          "type": "uint256"
        },
        {
          "internalType": "contract IERC721",
          "name": "nft",
          "type": "address"
        },
        {
          "internalType": "uint256",
          "name": "tokenId",
          "type": "uint256"
        },
        {
          "internalType": "uint256",
          "name": "price",
          "type": "uint256"
        },
        {
          "internalType": "address payable",
          "name": "seller",
          "type": "address"
        },
        {
          "internalType": "bool",
          "name": "sold",
          "type": "bool"
        }
      ],
      "stateMutability": "view",
      "type": "function"
    },
    {
      "inputs": [
        {
          "internalType": "contract IERC721",
          "name": "_nft",
          "type": "address"
        },
        {
          "internalType": "uint256",
          "name": "_tokenId",
          "type": "uint256"
        },
        {
          "internalType": "uint256",
          "name": "_price",
          "type": "uint256"
        }
      ],
      "name": "makeItem",
      "outputs": [],
      "stateMutability": "nonpayable",
      "type": "function"
    },
    {
      "inputs": [
        {
          "internalType": "uint256",
          "name": "_itemId",
          "type": "uint256"
        }
      ],
      "name": "purchaseItem",
      "outputs": [],
      "stateMutability": "payable",
      "type": "function"
    }
  ],
  "bytecode": "0x60c060405234801561001057600080fd5b5060405161116a38038061116a83398181016040528101906100329190610094565b60016000819055503373ffffffffffffffffffffffffffffffffffffffff1660808173ffffffffffffffffffffffffffffffffffffffff1660601b815250508060a08181525050506100de565b60008151905061008e816100c7565b92915050565b6000602082840312156100a657600080fd5b60006100b48482850161007f565b91505092915050565b6000819050919050565b6100d0816100bd565b81146100db57600080fd5b50565b60805160601c60a051611056610114600039600081816101e601526102970152600081816101bc015261047601526110566000f3fe6080604052600436106100705760003560e01c8063bfb231d21161004e578063bfb231d2146100f6578063ca7dd37514610138578063d38ea5bf14610175578063fa00afc71461019157610070565b806365e17c9d146100755780636bfb0d01146100a05780637fd6f15c146100cb575b600080fd5b34801561008157600080fd5b5061008a6101ba565b6040516100979190610afd565b60405180910390f35b3480156100ac57600080fd5b506100b56101de565b6040516100c29190610bef565b60405180910390f35b3480156100d757600080fd5b506100e06101e4565b6040516100ed9190610bef565b60405180910390f35b34801561010257600080fd5b5061011d600480360381019061011891906109da565b610208565b60405161012f96959493929190610c0a565b60405180910390f35b34801561014457600080fd5b5061015f600480360381019061015a91906109da565b610291565b60405161016c9190610bef565b60405180910390f35b61018f600480360381019061018a91906109da565b6102f4565b005b34801561019d57600080fd5b506101b860048036038101906101b3919061098b565b61067b565b005b7f000000000000000000000000000000000000000000000000000000000000000081565b60015481565b7f000000000000000000000000000000000000000000000000000000000000000081565b60026020528060005260406000206000915090508060000154908060010160009054906101000a900473ffffffffffffffffffffffffffffffffffffffff16908060020154908060030154908060040160009054906101000a900473ffffffffffffffffffffffffffffffffffffffff16908060040160149054906101000a900460ff16905086565b600060647f000000000000000000000000000000000000000000000000000000000000000060646102c29190610cb3565b60026000858152602001908152602001600020600301546102e39190610d3a565b6102ed9190610d09565b9050919050565b6102fc610907565b600061030782610291565b9050600060026000848152602001908152602001600020905060008311801561033257506001548311155b610371576040517f08c379a000000000000000000000000000000000000000000000000000000000815260040161036890610b4f565b60405180910390fd5b8134146103b3576040517f08c379a00000000000000000000000000000000000000000000000000000000081526004016103aa90610b8f565b60405180910390fd5b8060040160149054906101000a900460ff1615610405576040517f08c379a00000000000000000000000000000000000000000000000000000000081526004016103fc90610bcf565b60405180910390fd5b8060040160009054906101000a900473ffffffffffffffffffffffffffffffffffffffff1673ffffffffffffffffffffffffffffffffffffffff166108fc82600301549081150290604051600060405180830381858888f19350505050158015610473573d6000803e3d6000fd5b507f000000000000000000000000000000000000000000000000000000000000000073ffffffffffffffffffffffffffffffffffffffff166108fc8260030154846104be9190610d94565b9081150290604051600060405180830381858888f193505050501580156104e9573d6000803e3d6000fd5b5060018160040160146101000a81548160ff0219169083151502179055508060010160009054906101000a900473ffffffffffffffffffffffffffffffffffffffff1673ffffffffffffffffffffffffffffffffffffffff166323b872dd303384600201546040518463ffffffff1660e01b815260040161056c93929190610b18565b600060405180830381600087803b15801561058657600080fd5b505af115801561059a573d6000803e3d6000fd5b505050503373ffffffffffffffffffffffffffffffffffffffff168160040160009054906101000a900473ffffffffffffffffffffffffffffffffffffffff1673ffffffffffffffffffffffffffffffffffffffff168260010160009054906101000a900473ffffffffffffffffffffffffffffffffffffffff1673ffffffffffffffffffffffffffffffffffffffff167f8b4c9c8a607d67b321582dd8461041b1dc2ceeca70c8b7f37f8e02095cf2e76d868560020154866003015460405161066693929190610c6b565b60405180910390a45050610678610957565b50565b610683610907565b600081116106c6576040517f08c379a00000000000000000000000000000000000000000000000000000000081526004016106bd90610b6f565b60405180910390fd5b600160008154809291906106d990610e58565b91905055508273ffffffffffffffffffffffffffffffffffffffff166323b872dd3330856040518463ffffffff1660e01b815260040161071b93929190610b18565b600060405180830381600087803b15801561073557600080fd5b505af1158015610749573d6000803e3d6000fd5b505050506040518060c0016040528060015481526020018473ffffffffffffffffffffffffffffffffffffffff1681526020018381526020018281526020013373ffffffffffffffffffffffffffffffffffffffff168152602001600015158152506002600060015481526020019081526020016000206000820151816000015560208201518160010160006101000a81548173ffffffffffffffffffffffffffffffffffffffff021916908373ffffffffffffffffffffffffffffffffffffffff160217905550604082015181600201556060820151816003015560808201518160040160006101000a81548173ffffffffffffffffffffffffffffffffffffffff021916908373ffffffffffffffffffffffffffffffffffffffff16021790555060a08201518160040160146101000a81548160ff0219169083151502179055509050503373ffffffffffffffffffffffffffffffffffffffff168373ffffffffffffffffffffffffffffffffffffffff167f655a0cf9c8db81512be9a76dc1c5ae5380b8816ce6ad659cd61b715e2999d59a60015485856040516108f293929190610c6b565b60405180910390a3610902610957565b505050565b6002600054141561094d576040517f08c379a000000000000000000000000000000000000000000000000000000000815260040161094490610baf565b60405180910390fd5b6002600081905550565b6001600081905550565b60008135905061097081610ff2565b92915050565b60008135905061098581611009565b92915050565b6000806000606084860312156109a057600080fd5b60006109ae86828701610961565b93505060206109bf86828701610976565b92505060406109d086828701610976565b9150509250925092565b6000602082840312156109ec57600080fd5b60006109fa84828501610976565b91505092915050565b610a0c81610dda565b82525050565b610a1b81610dc8565b82525050565b610a2a81610dec565b82525050565b610a3981610e34565b82525050565b6000610a4c601183610ca2565b9150610a5782610eff565b602082019050919050565b6000610a6f602883610ca2565b9150610a7a82610f28565b604082019050919050565b6000610a92602083610ca2565b9150610a9d82610f77565b602082019050919050565b6000610ab5601f83610ca2565b9150610ac082610fa0565b602082019050919050565b6000610ad8601183610ca2565b9150610ae382610fc9565b602082019050919050565b610af781610e2a565b82525050565b6000602082019050610b126000830184610a03565b92915050565b6000606082019050610b2d6000830186610a12565b610b3a6020830185610a12565b610b476040830184610aee565b949350505050565b60006020820190508181036000830152610b6881610a3f565b9050919050565b60006020820190508181036000830152610b8881610a62565b9050919050565b60006020820190508181036000830152610ba881610a85565b9050919050565b60006020820190508181036000830152610bc881610aa8565b9050919050565b60006020820190508181036000830152610be881610acb565b9050919050565b6000602082019050610c046000830184610aee565b92915050565b600060c082019050610c1f6000830189610aee565b610c2c6020830188610a30565b610c396040830187610aee565b610c466060830186610aee565b610c536080830185610a03565b610c6060a0830184610a21565b979650505050505050565b6000606082019050610c806000830186610aee565b610c8d6020830185610aee565b610c9a6040830184610aee565b949350505050565b600082825260208201905092915050565b6000610cbe82610e2a565b9150610cc983610e2a565b9250827fffffffffffffffffffffffffffffffffffffffffffffffffffffffffffffffff03821115610cfe57610cfd610ea1565b5b828201905092915050565b6000610d1482610e2a565b9150610d1f83610e2a565b925082610d2f57610d2e610ed0565b5b828204905092915050565b6000610d4582610e2a565b9150610d5083610e2a565b9250817fffffffffffffffffffffffffffffffffffffffffffffffffffffffffffffffff0483118215151615610d8957610d88610ea1565b5b828202905092915050565b6000610d9f82610e2a565b9150610daa83610e2a565b925082821015610dbd57610dbc610ea1565b5b828203905092915050565b6000610dd382610e0a565b9050919050565b6000610de582610e0a565b9050919050565b60008115159050919050565b6000610e0382610dc8565b9050919050565b600073ffffffffffffffffffffffffffffffffffffffff82169050919050565b6000819050919050565b6000610e3f82610e46565b9050919050565b6000610e5182610e0a565b9050919050565b6000610e6382610e2a565b91507fffffffffffffffffffffffffffffffffffffffffffffffffffffffffffffffff821415610e9657610e95610ea1565b5b600182019050919050565b7f4e487b7100000000000000000000000000000000000000000000000000000000600052601160045260246000fd5b7f4e487b7100000000000000000000000000000000000000000000000000000000600052601260045260246000fd5b7f4974656d20646f65736e74206578697374000000000000000000000000000000600082015250565b7f5072696365206f6620746f6b656e206d7573742062652067726561746572207460008201527f68616e207a65726f000000000000000000000000000000000000000000000000602082015250565b7f496e73756666696369656e7420616d6f756e7420666f72207075726368617365600082015250565b7f5265656e7472616e637947756172643a207265656e7472616e742063616c6c00600082015250565b7f4974656d20616c726561647920736f6c64000000000000000000000000000000600082015250565b610ffb81610df8565b811461100657600080fd5b50565b61101281610e2a565b811461101d57600080fd5b5056fea264697066735822122027fb0e4c24ae53d7981e35025268d8e3e2fa647e19ae9cd0006493faa2c7158064736f6c63430008040033",
  "linkReferences": {},
  "deployedLinkReferences": {}
}